:060000000A128A116229B8
:10000800F000030EF1000B1D12280130A6060313A1
:100018008312F83081000B11031383120C1C1D2866
:100028000130A3070313831237308E00FC308F0092
:100038000C108C1C252801308506A7060313831293
:0C0048008C10710E8300F00E700E090089
:100200008A010A14820730346D34793433345B3414
:100210005F3471347F347334031783168801890186
:100220000313831685018701890103138312850156
:100230008701880189010800031383128B178B162D
:100240000B110B17031383160C148C140313831256
:100250000800031383160F178F120F120F100313CA
:10026000831208000313831681128111011181107A
:1002700001100313831203138312F83081000B1152
:1002800003138312080003138312901610169010A4
:100290001014031383120313831237308E00FC30C3
:1002A0008F000C10080003138312921012141217FF
:1002B00092121212921512152F309200031383120C
:1002C0008C1008000C211C212921322143215321AB
:1002D0002308A000A101A2010A302002031C7929F1
:1002E000A000A10A0A302102031C6C29A101A20A64
:1002F0006C29271C82298901870126188521261C43
:100300008D216829890187016829890187010914DC
:1003100089102108002187000800890187018914BC
:0A03200009102008002187000800E2
:04400E00C430FF3F7C
:00000001FF
