:060000000A128A116229B8
:10000800F000030EF1000B1D192803308906870143
:10001800091C1228891C1228013089000313831235
:100028001F3081000B11031383120C1C242801308C
:10003800A00703138312C2308F00F7308E000C1014
:100048008C1C2C2801308506A306031383128C1000
:0A005800710E8300F00E700E090017
:100200008A010A14820730346D34793433345B3414
:100210005F3471347F347334031783168801890186
:100220000313831685018701890103138312850156
:100230008701880189010800031383128B178B162D
:100240000B110B17031383160C148C140313831256
:100250000800031383160F138F160F160F100313C6
:10026000831208000313831681128111011181107A
:10027000011003138312031383121F3081000B112B
:1002800003138312080003138312901610169010A4
:1002900010140313831203138312C2308F00F7303C
:1002A0008E000C10080003138312921412141217FC
:1002B000921612169215121596309200031383129D
:1002C0008C1008000C211C212921322143215321AB
:1002D00001308900A401A501A6012008A6000A306A
:1002E0002602031C7C29A600A40A0A302402031C4F
:1002F0006F29A401A50A6F292608A1002408A200DD
:100300000918872189188B216A2987016A292208FF
:0E031000002187000800210800218700080056
:04400E00C430FF3F7C
:00000001FF
