:060000000A128A116029BA
:10000800F000030EF1000B1D132803308906870149
:10001800031383121F3081000B11031383120C1C6E
:100028001E280130A00703138312C2308F00F73057
:100038008E000C108C1C242801308506A3068C1019
:0A004800710E8300F00E700E090027
:100200008A010A1482077E3430346D3479343334F1
:100210005B345F3471347F34733403178316880181
:100220008901031383168501870189010313831252
:100230008501870189010800031383128B178B1630
:100240000B110B17031383160C148C140313831256
:100250000800031383160F138F160F160F100313C6
:10026000831208000313831681128111011181107A
:10027000011003138312031383121F3081000B112B
:1002800003138312080003138312901610169010A4
:1002900010140313831203138312C2308F00F7303C
:1002A0008E000C10080003138312921412141217FC
:1002B0009216121692151215963092008C100800A4
:1002C0000D211C2129213221432153210130890094
:1002D000A401A501A6012008A6000A302602031CDD
:1002E0007A29A600A40A0A302402031C6D29A4015D
:1002F000A50A6D292608A1002408A200231C85292F
:100300000918872189188B21682987016829220803
:0E031000002187000800210800218700080056
:04400E00C430FF3F7C
:00000001FF
