:020000040000FA
:060000000A128A110C280F
:10000800FE00030EF1000A08F2000A128A11CB2939
:100018000A128A110F28F601F70183010A128A11C0
:10002800F22800308A000408840A82070034513418
:10003800753465342034763461346C346F347234FA
:10004800203471347534693465347234653420343D
:1000580064346534733470346C34653467346134B3
:100068007234203465346E34203465346C34203472
:10007800703475346534723474346F3420344134D8
:100088003F34003451347534653420347634613467
:100098006C346F3472342034713475346934653497
:1000A80072346534203464346534733470346C3499
:1000B8006534673461347234203465346E342034E6
:1000C80065346C3420347034753465347234743467
:1000D8006F34203462343F340034283431342934C6
:1000E800203444346534733470346C346534673484
:1000F80061347234203463346134643465346E346A
:1001080061342034643465342034633461347234A7
:100118006134633474346534723465347334003450
:10012800453473347434653420346534733420347E
:1001380065346C34203474346534783474346F34F2
:1001480020346434653420346C34613420347034A1
:1001580061347234743465342034313400345134A9
:1001680075346534203461346334633469346F34EE
:100178006E34203464346534733465346134203427
:1001880065346A3465346334753474346134723474
:100198003F34003428343234293420344334613431
:1001A8006D346234693461347234203450344F34DD
:1001B800523454344134003428343334293420340C
:1001C800433461346D3462346934613472342034B8
:1001D80050344F3452345434423400340A128A11A1
:1001E80079210A128A110A128A1148210A128A11DF
:1001F80031307606031D0129022915297A300A12A1
:100208008A11A4210A128A1198300A128A11A4218B
:100218000A128A110A128A1148210A128A11F60151
:10022800FC2832307606031D1A291B292D29013096
:100238000A128A11A4210A128A11F60176080319F2
:100248002629272922297608831203138500F60117
:10025800F72833307606031D3229332944292C30F8
:100268000A128A11A4210A128A11F60176080319C2
:100278003E293F293A2976088312031386002B2941
:10028800FC280A128A110C2898300A128A11A42113
:100298000A128A1198300A128A11A4210A128A11A4
:1002A80099300A128A11A4210A128A1157300A12A7
:1002B8008A11A4210A128A11B4300A128A11A421BF
:1002C8000A128A11C6300A128A11A4210A128A1146
:1002D80098300A128A11A4210A128A1198300A1237
:1002E8008A11A4210A128A110800831603130F1415
:1002F8000F178F120F1283120313860185018316BD
:1003080003178901880183160313850186018B175A
:100318000B179A01193099001815831603178715BA
:1003280083160313181283120313981783160313E3
:100338009816831203131816831603138C160800D5
:10034800F500B829831203130C1EAB29AC29A62982
:10035800750884000A128A1115200A128A11990058
:100368000130F4007408F507750884000A128A1130
:1003780015200A128A11003A031DC329C429A62987
:100388000D300A128A11DD210A128A11080083121F
:1003980003138C1ED029D129D6291A08F000700819
:1003A800F6009A0172088A00710E8300FE0E7E0E16
:1003B8000900F300831203130C1EE329E429DE2944
:0603C80073089900080013
:04400E00D430FF3F6C
:00000001FF
