:060000000A128A115129C9
:10000800F000030EF1000B1D0E28A00A0B1164303E
:1000180081000B110B1C1528061C850A861C8503FC
:0C0028000B10710E8300F00E700E09002A
:100200008A010A1482077E3430346D3479343334F1
:100210005B345F3471347F34733477341F340D347E
:100220003D344F3447340313831606148614870174
:10023000850188010317831688018901031383123E
:100240008601870185018801080003138316811345
:100250000313831616149614031383120608151439
:1002600095140313831208008B170B108B158B1634
:100270000B100B110800031383160F178F160F12A4
:100280000F140313831208000313831681128111C4
:1002900001158114011003138312643081000B11C6
:1002A0000800132125213B214421342159215F21BC
:1002B00056290F30850505080021870008003230D7
:1002C0002002031964210800A0010311A10A0F30C4
:0A02D000A1052108002188000800A4
:04400E00C433FF3F79
:00000001FF
