:020000040000FA
:060000000A128A110E280D
:10000800FE00030EF2000408F3000A08F4000A12C6
:100018008A1183290A128A11112883010A128A1166
:10002800D92883120313A601A11F1B281C282328E3
:10003800A009A109A00A0319A10AA601A60AA31FDB
:10004800262827283028A209A309A20A0319A30AE7
:100058000130A4002408A606A701A801200821044D
:100068000319372838286F28A501A50A4628013022
:100078000310A00DA10DFF3E031D3C280130A40074
:100088002408A507A11F49284A283B280130031046
:10009800A70DA80DFF3E031D4B2821082302031DB1
:1000A800572820082202031C5A285B2862282008A7
:1000B800A2022108031CA303A30227140130031082
:1000C800A10CA00CFF3E031D63280130A502031DEF
:1000D8006E286F284A282608031973287428792857
:1000E800A709A809A70A0319A80A2808A100270828
:1000F800A000080083120313A601A31F84288528E3
:100108008C28A209A309A20A0319A30AA601A60A10
:10011800A11F8F2890289528A009A109A00A0319D2
:10012800A10A2008210403199A289B28CA28A50196
:10013800A50AA92801300310A00DA10DFF3E031D3B
:100148009F280130A4002408A507A11FAC28AD28CA
:100158009E2821082302031DB32820082202031C1D
:10016800B628B728BD282008A2022108031CA3032B
:10017800A30201300310A10CA00CFF3E031DBE28F2
:100188000130A502031DC928CA28AD28260803196D
:10019800CE28CF28D428A209A309A20A0319A30AA2
:1001A8002308A1002208A00008000A128A110F22C1
:1001B8000A128A11F801F80A0A128A112E210A1263
:1001C8008A1116298701013089007708AE00AF012E
:1001D8002E08A0002F08A1000A128A11CB210A12AA
:1001E8008A11E0288701023089007608AE00AF0145
:1001F8002E08A0002F08A1000A128A11CB210A128A
:100208008A11E0288701043089007508AE00AF0123
:100218002E08A0002F08A1000A128A11CB210A1269
:100228008A11E028780883120313AE00AF012F0863
:10023800003A03192029E0282E08013A0319E62874
:10024800033A0319F628063A03190629E0280A1280
:100258008A110E28643083120313A0000030A10015
:100268000808A900AA012908A2002A08A3000A125E
:100278008A1115200A128A11831203132008AB0071
:100288002B08F7006430A0000030A1000808A9007E
:10029800AA012908A2002A08A3000A128A117E20AE
:1002A8000A128A11831203132108AD002008AC003A
:1002B8000A30A0000030A1002D08A3002C08A200DD
:1002C8000A128A1115200A128A11831203132008B0
:1002D800A9002908F6000A30A0000030A1002D0866
:1002E800A3002C08A2000A128A117E200A128A1181
:1002F800831203132008A9002908F50008000B1D24
:1003080086298729AD2995290230F0007008F80060
:10031800A8290430F0007008F800A829F801F80AA4
:10032800A8297808F000F1017108003A03199D29FD
:10033800A8297008013A03198829033A03198D2955
:10034800063A03199229A8290B11B1308312031315
:1003580081000B1CB029B129C22983120313061886
:10036800B629B729BB290130F0007008880786181C
:10037800BE29BF29C129013088020B1074088A00E0
:1003880073088400720E8300FE0E7E0E0900E729B2
:100398003F3087000E2A063087000E2A5B30870020
:1003A8000E2A4F3087000E2A663087000E2A6D30DD
:1003B80087000E2A7D3087000E2A7F3087000E2A9C
:1003C800673087000E2A831203132108003A0319A5
:1003D800EE290E2A2008003A0319CC29013A0319FC
:1003E800CF29033A0319D229013A0319D529073A23
:1003F8000319D829013A0319DB29033A0319DE291D
:10040800013A0319E1290F3A0319E129013A0319BD
:10041800E4290E2A0800831603130F140F138F12F2
:100428000F168312031387010330860088018901A0
:100438008316031788018901831603138701033084
:1004480086008801890181130F3096000F309500CE
:1004580081128111011181100110B130831203132F
:0A04680081000B118B168B170800A2
:04400E00F430FF3F4C
:00000001FF
