:020000040000FA
:060000000A128A110C280F
:10000800FE00030EF1000A08F2000A128A111328F2
:100018000A128A110F2883010A128A1164280B1DFB
:100028001628172820280130F000700883120313BF
:100038008707B13081000B110B1C23282428352891
:1000480083120313061829282A282E280130F000C5
:100058007008880786183128322834280130880229
:100068000B1072088A00710E8300FE0E7E0E0900C6
:10007800831603130F140F138F120F168312031313
:1000880087010330860088018316031788018901D8
:100098008316031387010330860088018113033018
:1000A8009600033095008112811101118110011011
:1000B800B1308312031381000B118B168B170800C4
:1000C8000A128A113C200A128A1169280A128A1116
:0200D8000C28F2
:04400E00F430FF3F4C
:00000001FF
