:060000000A128A113E29DC
:100200008A010A148207000030346D3479343334A3
:100210005B345F3471347F34733477341F340D347E
:100220003D344F3447340313831605148514870176
:10023000880189010317831688018901031383123A
:100240008501870188018901A00108000313831635
:100250000F138F120F160F140313831208000313CA
:100260008316811281110115811401100313831269
:100270003A210800863081000B1108001321262145
:100280002F21031383120910031105184C2185181F
:1002900058210B196421432905184C2905184E29AA
:1002A000A00A0F30A00520080021880009100800CE
:1002B000851C582985185A29A0030F30A00520084D
:1002C00000218800091008003A21870A0F308705AD
:1002D0000708200203196D2108008701091419304D
:1002E000A2007521A20B712908007F30A100A10B8B
:0402F0007729080062
:04400E00C430FF3F7C
:00000001FF
