:060000000A128A116429B6
:10000800F000030EF1000B1D13280310850D870166
:10001800031C102801308500FA3081000B110B1CDD
:1000280038280618192801308907A01C23288618A3
:100038001F280130A207061923280130A202201D1B
:100048002D28861829280130AB0706192D280130DC
:10005800AB02A01D3728861833280130B4070619CB
:1000680037280130B4020B100C1C4D280130C20691
:100078000030BC02031942280130BC020030BD0226
:10008800031948280130BD02F0308F00BD308E00C2
:0C0098000C10710E8300F00E700E0900B9
:100200008A010A1482077E3430346D3479343334F1
:100210005B345F3471347F34733403178316880181
:1002200089010313831685018701880189017F30C5
:100230008600031383128501870188018901080064
:1002400003138316811303138316161496141615BD
:10025000060803138316151495141515031383123A
:100260000800031383128B170B108B158B160B10C2
:100270000B110B17031383160C14031383120800BE
:10028000031383160F138F120F160F140313831209
:1002900008000313831681128111011581140110C6
:1002A00003138312FA3081000B1108000313831229
:1002B000901610169010101403138312F0308F0054
:1002C000BD308E000C1008000D2120214021492155
:1002D000312156210514013089000A30A100AA00FD
:1002E000B300A200AB00B40003010430A500AE00CF
:1002F000B70003010330A300AC00B500A400AD00BB
:10030000B6005A23C401C501C3013D08C3000A3029
:100310004302031C9429C300C40A0A304402031C8C
:100320008729C401C50A87294308C6004408C700B5
:10033000C401C501C3013F08C3000A304302031CC6
:10034000AA29C300C40A0A304402031C9D29C4011F
:10035000C50A9D294308C0004408C100051CB329F3
:10036000470800218700851CB8294608002187001E
:10037000051DBD29470800218700851DC2294608A3
:1003800000218700051EC729470800218700851E18
:10039000CC29460800218700051FD12941080021EA
:1003A0008700851F82294008002187000930090243
:1003B000031DDC290130A0000A300902031DE229D7
:1003C0000230A0000B300902031DE8290430A00010
:1003D0000C300902031DEE290830A0000D3009027F
:1003E000031DF4291030A0000E300902031DFA2964
:1003F00001308900201CFD290A2AA01C002AEB2AB2
:10040000201D032AFA2AA01D062A092B201E092ACC
:10041000182B82290B2A003026020319162A0030D5
:100420003D02031D162A2608BD00A6010030290240
:1004300003192A2A00303C02031D212A2908BC0086
:10044000A90189308800861300303C02031D8229EF
:1004500088012A2A0030270203193E2A00303C0274
:10046000031D352A2708BC00A7014C3088008613DD
:1004700000303C02031D822988013E2A00302802F8
:100480000319542A00303C02031D492A2808BC00E5
:10049000A801421C4D2A08114E2A081500303C02C2
:1004A000031D82298801542A00302F0203195F2A74
:1004B00000303D02031D5F2A2F08BD00AF01003050
:1004C00032020319722A00303C02031D6A2A3208E4
:1004D000BC00B2014A30880000303C02031D822972
:1004E0008801722A003030020319852A00303C024C
:1004F000031D7D2A3008BC00B00161308800003047
:100500003C02031D82298801852A0030310203192B
:100510009B2A00303C02031D902A3108BC00B10127
:10052000421C942A8812952A881600303C02031D2A
:10053000822988019B2A003038020319A62A00303C
:100540003D02031DA62A3808BD00B80100303B0259
:100550000319BA2A00303C02031DB12A3B08BC0033
:10056000BB0151308613880000303C02031D8229F4
:100570008801BA2A003039020319CE2A00303C0221
:10058000031DC52A3908BC00B90109308800861747
:1005900000303C02031D82298801CE2A00303A0235
:1005A0000319E92A00303C02031DD92A3A08BC008D
:1005B000BA01421CDD2A8613DE2A8617081CE22AAD
:1005C0008613E32A861700303C02031D8229880126
:1005D000E92A5A2382292208BF0009302202031D7A
:1005E000F32A1430A20015302202031DF92A0A3022
:1005F000A2000A2A2B08BF0009302B02031D022B80
:100600001430AB0015302B02031D082B0A30AB0051
:100610000A2A3408BF0009303402031D112B14309C
:10062000B40015303402031D172B0A30B4000A2A17
:1006300086184E2B2208A1000630A2022208A5002F
:100640002B08AA000630AB022B08AE003408B3001A
:100650000630B4023408B7002108A2002A08AB0013
:100660003308B400FF3088008617FF30BE00BE0B91
:10067000372BFF30BE00BE0B3B2BBC01BD01BF01C1
:10068000A601A701A801A901AF01B001B101B20102
:10069000B801B901BA01BB010130890006190A2A63
:1006A0002108A2002A08AB002A08AB00BF010130D4
:1006B00089000A2A2508A9002E08B2002E08B200D7
:1006C0003708BB002308A7002C08B0003508B90084
:1006D0002408A8002D08B1003608BA002108A60099
:0C06E0002A08AF003308B800080008002A
:04400E00C430FF3F7C
:00000001FF
