:020000040000FA
:060000000A128A110E280D
:10000800FE00030EF7000408F8000A08F9000A12B7
:100018008A15162B0A128A111128F001F101F20132
:10002800F301F40183120313E701E801E901EA018E
:10003800EB01EC01ED01EE0183160313A501A60106
:10004800A70183010A128A118A2B8312031331082C
:100058008039B6003608BB003108B6003607B7004D
:100068003708C100B01F39283A283B2841144108F5
:1000780003193F2840284F28410A031D44284528D2
:100088004D280030B1000030B0000030AF00003023
:10009800AE00B01757280030B1000030B000003073
:1000A800AF000030AE0035088039B6003608BB0610
:1000B8003508B6003607B7003708BC00B41F6528F6
:1000C800662867283C143C0803196B286C287B2891
:1000D8003C0A031D7028712879280030B5000030CB
:1000E800B4000030B3000030B200B41783280030E9
:1000F800B5000030B4000030B3000030B2003C0856
:100108000319872888288D284108031D8C288D28E5
:1001180096280030B1000030B0000030AF00003049
:10012800AE00892B2E08B6003608A00034080A1243
:100138008A159E220A128A11831203132108C70006
:100148002008C6004608B600B701B801B901390849
:10015800C0003808BF003708BE003608BD00470891
:10016800B600B701B801B9013908C5003808C4009C
:100178003708C3003608C2002F08B6003608A000AA
:1001880033080A128A159E220A128A11831203134F
:100198002108C7002008C6004608B600B701B80104
:1001A800B9013608BD07370803110318013E0319C2
:1001B800DE28BE07380803110318013E0319E52895
:1001C800BF07390803110318013E0319EC28C007BB
:1001D8004708B600B701B801B9013608C2073708A1
:1001E80003110318013E0319FA28C307380803113D
:1001F8000318013E03190129C4073908031103181C
:10020800013E03190829C5073008B6003608A000C2
:1002180032080A128A159E220A128A1183120313BF
:100228002108C7002008C6004608B600B701B80173
:10023800B9013608BD07370803110318013E031931
:100248002629BE07380803110318013E03192D2972
:10025800BF07390803110318013E03193429C007E1
:100268004708B600B701B801B9013608C207370810
:1002780003110318013E03194229C3073808031163
:100288000318013E03194929C40739080311031843
:10029800013E03195029C5070830B6000310BD0DEB
:1002A800BE0DBF0DC00DB60B52292F08B60036087B
:1002B800A00032080A128A159E220A128A11831295
:1002C80003132108C7002008C6004608B6004708DF
:1002D800B700B801B9013608BD073708031103187C
:1002E800013E03197829BE07380803110318013E97
:1002F80003197F29BF07390803110318013E0319A1
:100308008629C0072E08B6003608A00033080A124E
:100318008A159E220A128A11831203132108C70024
:100328002008C6004608B6004708B700B801B9015A
:100338003608BD07370803110318013E0319A5291C
:10034800BE07380803110318013E0319AC29BF077B
:10035800390803110318013E0319B329C0070830EF
:10036800B6000310BD0DBE0DBF0DC00DB60BB529EF
:100378002E08B6003608A00032080A128A159E22F6
:100388000A128A11831203132108C7002008C60025
:100398004608B6004708B700B801B9013608BD07D6
:1003A800370803110318013E0319DB29BE07380873
:1003B80003110318013E0319E229BF073908031185
:1003C8000318013E0319E929C0072F08B6003608AB
:1003D800A00034080A128A159E220A128A11831272
:1003E80003132108C7002008C6004608B6004708BE
:1003F800B700B801B9013608C20737080311031856
:10040800013E0319082AC307380803110318013EDF
:1004180003190F2AC407390803110318013E0319E9
:10042800162AC5073008B6003608A00033080A1295
:100438008A159E220A128A11831203132108C70003
:100448002008C6004608B6004708B700B801B90139
:100458003608C207370803110318013E0319352A65
:10046800C307380803110318013E03193C2AC407BF
:10047800390803110318013E0319432AC507300838
:10048800B6003608A00034080A128A159E220A12FD
:100498008A11831203132108C7002008C6004608E2
:1004A800B6004708B700B801B90108300310B60D07
:1004B800B70DB80DB90DFF3E031D5A2A3608C207FD
:1004C800370803110318013E03196B2AC3073808BC
:1004D80003110318013E0319722AC40739080311CE
:1004E8000318013E0319792AC5073D08B6003E08DE
:1004F800B7003F08B8004008B90018300310B90C1D
:10050800B80CB70CB60CFF3E031D822A3608C2078A
:10051800370803110318013E0319932AC307380843
:1005280003110318013E03199A2AC4073908031155
:100538000318013E0319A12AC5070830B6000310A5
:10054800BD0DBE0DBF0DC00DB60BA32A41083C075B
:10055800B600B701B70D3608823EC6003708031843
:10056800013EFF3EC700D52A0130B6000310C20D78
:10057800C30DC40DC50DB60BBA2AC01FC42AC52A9F
:10058800C62A42140130B6000310BD0DBE0DBF0DC2
:10059800C00DB60BC82AFF30C6070318C70AFF30BC
:1005A800C707C41FD82AD92AB82ABC01C01FDD2A08
:1005B800DE2AFA2AFF303D05B600FF303E05B700B7
:1005C800FF303F05B8007F304005B90039083804CE
:1005D800370436040319F12AF22AF52ABC01BC0AA9
:1005E800FA2A421CF82AF92AFA2AF22A3C0803199C
:1005F800FE2AFF2A302B0130C207003003180130D1
:10060800C307003003180130C40700300318013055
:10061800C507451C102B112B302B4208B600430888
:10062800B7004408B8004508B9000130BA00390DD0
:10063800B90CB80CB70CB60CBA0B1B2B3908C50093
:100648003808C4003708C3003608C2000130C6079E
:100658000318C70A0030C7074708803AFF008030F0
:100668007F02031D392BFF304602031C3C2B3D2B18
:10067800482B7F3083120313C5008030C40000303C
:10068800C3000030C2007D2B831203134708803A51
:10069800FF0080307F02031D532B013046020318F0
:1006A800562B572B632B003083120313C5000030E1
:1006B800C4000030C3000030C200BB017D2B831290
:1006C80003134608B6003608C100FF30C205FF30E4
:1006D800C3057F30C4050030C505411C742B752B3C
:1006E800762BC4174108B6000310360CB70037083C
:1006F800C5003B08B6003608C5044508B1004408E3
:10070800B0004308AF004208AE0008000A128A157C
:1007180083240A128A1183120313ED01ED0A740867
:1007280083160313A000A101A201A30123088312C9
:100738000313A30083160313220883120313A200D2
:1007480083160313210883120313A10083160313CE
:10075800200883120313A00001300A128A11DF2631
:100768000A128A11831203132308B5002208B40061
:100778002108B3002008B2003E30B100C830B000F4
:10078800C130AF005530AE000A128A1129200A1272
:100798008A11831203133108DF003008DE002F08A6
:1007A800DD002E08DC000A128A15FC240A128A11C0
:1007B800831203135C0883160313A4002408F100B2
:1007C800831203136E0883160313A000A101A2016C
:1007D800A301230883120313A3008316031322081B
:1007E80083120313A2008316031321088312031331
:1007F800A10083160313200883120313A0000130FD
:100808000A128A11DF260A128A1183120313230897
:10081800B5002208B4002108B3002008B2003F3018
:10082800B1003430B000AF30AF004F30AE000A1224
:100838008A1129200A128A11831203133108CF0062
:100848003008CE002F08CD002E08CC00C230CB00D7
:100858008830CA000030C9000030C8000A128A1562
:1008680078250A128A11831203134B08DF004A08FD
:10087800DE004908DD004808DC000A128A15FC245D
:100888000A128A11831203135C0883160313A40047
:100898002408F2007208A000A101200883120313A3
:1008A800A90083160313210883120313AA000A124E
:1008B8008A15C7220A128A11710883160313A00029
:1008C800A101200883120313A9008316031321082A
:1008D80083120313AA000A128A1566230A128A11C0
:1008E800003083120313851B0130EB00003005191B
:1008F8000130EA009F1456307306031D842C852CA2
:10090800912C3F309500150883160313A00020088A
:1009180083120313EC00F301DE2D42307306031D2E
:10092800962C972CA22C7E3095001508831603135D
:10093800A000200883120313EC008F2C4E3073069E
:10094800031DA72CA82CB32CBD30950015088316C1
:100958000313A000200883120313EC008F2C4D30E2
:100968007306031DB82CB92CC42CFF30950015084C
:1009780083160313A000200883120313EC008F2CA6
:1009880053307306031DC92CCA2CD02C85150512AB
:100998008512051706108F2C41307306031DD52CC0
:1009A800D62CDC2C851505128516051306108F2C00
:1009B80057307306031DE12CE22CE82C851105162F
:1009C8008516051306108F2C44307306031DED2C75
:1009D800EE2CF42C851105168512051706108F2CA0
:1009E80050307306031DF92CFA2C002D85110512C1
:1009F8008512051306148F2C47307306031D052D29
:100A0800062D7C2D8B130B13831603170C158312DD
:100A18000313061186146C08831203178C008D01CA
:100A28005530831603178D00AA308D008C1483125D
:100A380003130D1E202D212D1B2D0D12720883125C
:100A480003178C0001308D005530831603178D0075
:100A5800AA308D008C14831203130D1E342D352DEE
:100A68002F2D0D127108831203178C0002308D0090
:100A78005530831603178D00AA308D008C1483120D
:100A880003130D1E482D492D432D0D126B0883129B
:100A980003178C0003308D005530831603178D0023
:100AA800AA308D008C14831203130D1E5C2D5D2D4E
:100AB800572D0D126A08831203178C0004308D001D
:100AC8005530831603178D00AA308D008C148312BD
:100AD80003130D1E702D712D6B2D0D128316031728
:100AE8000C118B170B1783120313061586108F2C06
:100AF8004C307306031D812D822DBC2D8B130B13D7
:100B0800831603170C15831203178D018316031719
:100B18008C130C14831203170C088312031395000B
:100B28000330831203178D00831603178C130C14DC
:100B3800831203170C0C83120313031C05110318EB
:100B480005150430831203178D00831603178C13C1
:100B58000C14831203170C0C83120313031C851344
:100B680003188517831603170C118B170B178F2C77
:100B780045307306031DC12DC22DCD2D051DC52D74
:100B8800C92D831203130515CC2D831203130511E8
:100B98008F2C46307306031DD22DD32DDE2D851FD5
:100BA800D62DDA2D831203138517DD2D8312031337
:100BB80085138F2C70080319E22DE32D932B113028
:100BC80083120313A2008030A3000A128A15782228
:100BD8000A128A1183120313670883160313A000ED
:100BE800A101200883120313A00083160313210810
:100BF80083120313A1000A128A119B270A128A1171
:100C0800831203132008A2002108A3000A128A15E0
:100C180078220A128A1183120313680883160313B1
:100C2800A000A101200883120313A0008316031358
:100C3800210883120313A1000A128A119B270A12A2
:100C48008A11831203132008A2002108A3000A12A4
:100C58008A1578220A128A118312031369088316E7
:100C68000313A000A101200883120313A000831618
:100C78000313210883120313A1000A128A119B2768
:100C88000A128A11831203132008A2002108A30064
:100C98000A128A1578220A128A111F308312031346
:100CA800A2008030A3000A128A1578220A128A113B
:100CB800013083120313A2008030A3000A128A15A0
:100CC80078220A128A11831603132508A000A101AD
:100CD800200883120313A00083160313210883122C
:100CE8000313A1000A128A119B270A128A11831280
:100CF80003132008A2002108A3000A128A157822EB
:100D08000A128A11831603132608A000A1012008DD
:100D180083120313A00083160313210883120313FD
:100D2800A1000A128A119B270A128A11831203133F
:100D38002008A2002108A3000A128A1578220A12A4
:100D48008A11831603132708A000A1012008831223
:100D58000313A00083160313210883120313A100B1
:100D68000A128A119B270A128A1183120313200878
:100D7800A2002108A3000A128A1578220A128A11F1
:100D8800253083120313A2008030A3000A128A15AB
:100D980078220A128A11233083120313A2008030AA
:100DA800A3000A128A1578220A128A11F001932BDD
:100DB8000A128A110E2883120313A800280803199F
:100DC800E62EE72EFB2EA31FEA2EEB2EFB2E200984
:100DD800AA002109AB002209AC002309AD00AA0A28
:100DE8000319AB0A0319AC0A0319AD0A032F230828
:100DF800AD002208AC002108AB002008AA00230897
:100E0800220421042004031D0A2F0B2F142F003065
:100E1800A3000030A2000030A1000030A0009A2FEB
:100E28009630A4002408A900262F0130A400240825
:100E3800A90701300310AD0CAC0CAB0CAA0CFF3E9B
:100E4800031D1E2FFE302D05031D2B2F2C2F192FB0
:100E5800482F0130A4002408A9070130AA07003050
:100E680003180130AB07003003180130AC0700301D
:100E780003180130AD0701300310AD0CAC0CAB0CFE
:100E8800AA0CFF3E031D402FFF302D05031D4D2FDB
:100E98004E2F2D2F5A2F0130A9020130A400031024
:100EA800AA0DAB0DAC0DAD0DA40B532FAC1B5D2FD4
:100EB8005E2F642F023029020318632F642F4F2FEF
:100EC8002918672F682F702FFF30AA05FF30AB0550
:100ED8007F30AC05FF30AD050310A90C2908A4002C
:100EE800A501A601A70118300310A40DA50DA60D94
:100EF800A70DFF3E031D782F2408AA042508AB047C
:100F08002608AC042708AD04280803198C2F8D2F58
:100F1800922FA31F902F912F922FAD172D08A3006A
:100F28002C08A2002B08A1002A08A0000800CE2F38
:100F38002730A0008030A100F52F2930A000803094
:100F4800A100F52F2B30A0008030A100F52F2D3007
:100F5800A0008030A100F52F2F30A0008030A10024
:100F6800F52F3130A0008030A100F52F3330A000DC
:100F78008030A100F52F3530A0008030A100F52F7A
:100F88003730A0008030A100F52F3930A000803024
:100F9800A100F52F831203132108003A0319D52F56
:100FA800F52F2008003A03199C2F013A0319A12FA5
:100FB800033A0319A62F013A0319AB2F073A03196D
:100FC800B02F013A0319B52F033A0319BA2F013A82
:100FD8000319BF2F0F3A0319C42F013A0319C92F58
:040FE800F52F0800D9
:10100000FF1B0A2883137F1883170008840A03191B
:10101000FF0A080008308A000408840A82070034A6
:101020004C3455345A34203441344D3442344934EC
:1010300045344E34543441344C343A342034003442
:10104000543445344D34503445345234413454349E
:101050005534523441343A3420340034433420344B
:10106000203400340A3400340D3400343034003479
:101070003134003432340034333400343434003406
:1010800035340034363400343734003438340034E6
:0410900039340034BB
:1014F0008D2A0C1E7C2A7D2A792A2308FF002208C7
:1015000084000A128A1500200A128A1599000130F7
:10151000A2070318A30A0030A307831203132308AA
:10152000FF00220884000A128A1500200A128A1578
:10153000003A031D9C2A9D2A792A0800831203136E
:10154000A800A401A5012008A200A3012208A6006A
:101550002308A700281CAD2AAE2AB42A2608A4070F
:101560000318A50A2708A50701300310A60DA70D2B
:10157000FF3E031DB52A0310A80C2808031DC12A2D
:10158000C22AAA2A2508A1002408A0000800643065
:1015900083120313A0000030A1002A08A300290829
:1015A000A2000A128A151A240A128A15831203133A
:1015B0002008AB002B08E7006430A0000030A10039
:1015C0002A08A3002908A2000A128A15BF230A12BA
:1015D0008A15831203132108AD002008AC000A30DD
:1015E000A0000030A1002D08A3002C08A2000A12C0
:1015F0008A151A240A128A15831203132008AB00D5
:101600002B08E8000A30A0000030A1002D08A3003C
:101610002C08A2000A128A15BF230A128A15831207
:1016200003132008AB002B08E90008008312031302
:101630008C1E1B2B1C2B212B1A08F5007508F300A0
:101640009A010C1F242B252B4D2B3D2B1E08F5003A
:101650007508F4001F08C33904389F000230F500F4
:101660007508ED000C134D2B1E08F5007508EE00F3
:10167000C3309F05ED01ED0A322B6D08F500F60130
:101680007608003A0319452B4D2B7508013A0319CA
:10169000262B033A0319342B4D2B0C1C502B512BAA
:1016A0005D2B7008031D552B562B582BF001F00AAB
:1016B0000B308F0047308E000C1079088A007808B4
:1016C0008400770E8300FE0E7E0E090064308312C4
:1016D0000313A0000030A1002A08A3002908A200DB
:1016E0000A128A151A240A128A1583120313200873
:1016F000AB002B0883160313A50064308312031379
:10170000A0000030A1002A08A3002908A2000A12A4
:101710008A15BF230A128A15831203132108AD000C
:101720002008AC000A30A0000030A1002D08A30062
:101730002C08A2000A128A151A240A128A1583128A
:1017400003132008AB002B0883160313A6000A30EE
:1017500083120313A0000030A1002D08A3002C0861
:10176000A2000A128A15BF230A128A1583120313D4
:101770002008AB002B0883160313A7000800831270
:101780000313A601A31FC52BC62BCD2BA209A309AA
:10179000A20A0319A30AA601A60AA11FD02BD12BC6
:1017A000D62BA009A109A00A0319A10A2008210427
:1017B0000319DB2BDC2B0B2CA501A50AEA2B01302E
:1017C0000310A00DA10DFF3E031DE02B0130A4006E
:1017D0002408A507A11FED2BEE2BDF2B21082302E8
:1017E000031DF42B20082202031CF72BF82BFE2BE1
:1017F0002008A2022108031CA303A3020130031046
:10180000A10CA00CFF3E031DFF2B0130A502031D00
:101810000A2C0B2CEE2B260803190F2C102C152C40
:10182000A209A309A20A0319A30A2308A1002208F6
:10183000A000080083120313A601A11F202C212C55
:10184000282CA009A109A00A0319A10AA601A60A29
:10185000A31F2B2C2C2C352CA209A309A20A031997
:10186000A30A0130A4002408A606A701A8012008A5
:10187000210403193C2C3D2C742CA501A50A4B2CEA
:1018800001300310A00DA10DFF3E031D412C0130BE
:10189000A4002408A507A11F4E2C4F2C402C01307A
:1018A0000310A70DA80DFF3E031D502C2108230295
:1018B000031D5C2C20082202031C5F2C602C672C6B
:1018C0002008A2022108031CA303A302271401304D
:1018D0000310A10CA00CFF3E031D682C0130A502D3
:1018E000031D732C742C4F2C26080319782C792C8B
:1018F0007E2CA709A809A70A0319A80A2808A1008D
:101900002708A0000800831603130F140F178F1267
:101910000F120330831203138500053086008710F1
:101920000711880103308316031788008901831685
:1019300003138601033085008801871007118B1778
:101940000B170C179A0119309900181583160317F5
:10195000871583160313181283120313981783161F
:1019600003139816831203131816831603138C1689
:101970000714871407158715FF3092003F30831234
:10198000031397051708F0390C3897000F309D04A2
:10199000950102309B00CF3097051D129D128316D2
:1019A00003139F121F129F133F30831203139F05CF
:1019B0000C131F148C101208FC3901389200873068
:1019C000920512158C1CE52CE62CE22C83160313D1
:1019D0008710071183120313901610169015101517
:1019E00090101014831603130C140B30831203137E
:1019F0008F0047308E0008000310831203135E0D22
:101A00005F0DE0006008E6006608031D082D092D43
:101A1000122D0030DF000030DE000030DD0000302D
:101A2000DC00772D5C08E0005D08E1005E08E20064
:101A30005F08E3001F300310E30CE20CE10CE00C44
:101A4000FF3E031D1B2D6008E4006408E500DE175F
:101A5000FF30DC05FF30DD05FF30DE050030DF053F
:101A60009630E602E61F352D362D502D6608803A59
:101A7000973E03183C2D3D2D3E2D092D01300310BE
:101A8000DF0CDE0CDD0CDC0CFF3E031D3F2D0130B6
:101A9000E0006008E607031D4E2D4F2D3E2D672DFB
:101AA00020306602031C552D562D622D092D013064
:101AB000E0000310DC0DDD0DDE0DDF0DE00B592D18
:101AC0000130E6026608031D662D672D572D650857
:101AD00003196B2D6C2D772DDC09DD09DE09DF097B
:101AE000DC0A0319DD0A0319DE0A0319DF0A0800FC
:101AF000831203134B088039D0005008D8004B08DC
:101B0000D0005007D1005108DA00CA1F882D892D56
:101B10008A2D5A145A0803198E2D8F2D9F2D5A0A7B
:101B2000031D932D942D9C2D0030CB000030CA0056
:101B30000030C9000030C800CA17CB01A72D003003
:101B4000CB000030CA000030C9000030C8004F0888
:101B50008039D0005008D900590858060319B12D12
:101B6000B22DB32D58174F08D0005007D10051089F
:101B7000D900CE1FBC2DBD2DBE2D591459080319F7
:101B8000C22DC32DD32D590A031DC72DC82DD02D0D
:101B90000030CF000030CE000030CD000030CC004F
:101BA000CE17CF01DB2D0030CF000030CE0000304B
:101BB000CD000030CC005A0859020318E02DE12D69
:101BC000252E581FE42DE52DE92D8030D00050083A
:101BD000D8065A08D0005008DB005908D000500839
:101BE000DA005B08D0005008D9004808D00050083F
:101BF000DB004C08D0005008C8005B08D00050083B
:101C0000CC004908D0005008DB004D08D000500837
:101C1000C9005B08D0005008CD004A08D000500829
:101C2000DB004E08D0005008CA005B08D000500806
:101C3000CE004B08D0005008DB004F08D000500801
:101C4000CB005B08D0005008CF00DB015908D00062
:101C5000D1015108D3005A085002D200031CD3030B
:101C60005308803AFF0080307F02031D392E1A305E
:101C70005202031C3C2E3D2E7A2E831203134B0876
:101C80004A0449044804031D462E482E0130492EBB
:101C90000030D0005008DB000030CB000030CA001C
:101CA0000030C9000030C8005908D0005008DA00E0
:101CB000822E5B1C5C2E5D2E662E5B08D00003100E
:101CC000500C0138D1005108DB00682E0310DB0CEA
:101CD000481C6B2E6C2E6D2EDB170130D0004B0D87
:101CE000CB0CCA0CC90CC80CD00B6F2E0130D00025
:101CF0005008DA078312031359085A02031C812E75
:101D0000822E592E581B852E862ED12E5A08031D41
:101D10008A2E8B2E942E0030CB000030CA0000306B
:101D2000C9000030C800FF2F4C08C8074D08031138
:101D30000318013E03199D2EC9074E08031103180D
:101D4000013E0319A42ECA074F0803110318013ED0
:101D50000319AB2ECB074B1CAE2EAF2E852F5B1C71
:101D6000B22EB32EBC2E5B08D0000310500C0138ED
:101D7000D1005108DB00BE2E0310DB0C481CC12E25
:101D8000C22EC32EDB170130D0004B0DCB0CCA0C7A
:101D9000C90CC80CD00BC52E0130D0005008DA0792
:101DA000852F4B08803AFF004F08803A7F02031DC1
:101DB000E32E4E084A02031DE32E4D084902031D7F
:101DC000E32E4C0848020318E62EE72E3F2FFF3083
:101DD000D000FF30D100FF30D200FF30D3004C08DC
:101DE000D4004D08D5004E08D6004F08D70048084B
:101DF000D4024908031C490FFE2EFF2ED5024A08C3
:101E0000031C4A0F042F052FD6024B08031C4B0F4F
:101E10000A2F0B2FD7025408D00755080318550F67
:101E2000122F132FD10756080318560F182F192FEA
:101E3000D20757080318570AD3075308CB00520894
:101E4000CA005108C9005008C8008030D0005008AE
:101E5000D806DB09DB0A5B08031D2F2F302F4D2F1F
:101E60000130C807003003180130C90700300318DB
:101E70000130CA07003003180130CB074D2F4C0842
:101E8000C8024D08031C4D0FC9024E08031C4E0F1B
:101E9000CA024F08031C4F0FCB024B084A044904E7
:101EA0004804031D542F552F812F5B08031D592F04
:101EB0005A2F812F0030CB000030CA000030C900FB
:101EC0000030C800FF2F0130D0000310C80DC90D2D
:101ED000CA0DCB0DD00B652FDB1F6F2F702F712F0D
:101EE00048145B1C742F752F782F0314DB0D7A2F89
:101EF0000310DB0D5A0803197E2F7F2F812F01302D
:101F0000DA02CA1F842F852F632FD901DB1F892F87
:101F10008A2F982F5B087F3903198F2F902F932FCB
:101F2000D901D90A982F481C962F972F982F902FB8
:101F3000590803199C2F9D2FD12F0130C80700305D
:101F400003180130C907003003180130CA070030F8
:101F500003180130CB074B1CAE2FAF2FD12F4808F1
:101F6000D0004908D1004A08D2004B08D300013004
:101F7000D400530DD30CD20CD10CD00CD40BB92FF0
:101F80005308CB005208CA005108C9005008C800C5
:101F90005A0A0319CC2FCD2FD12F0130D000500871
:101FA000DA075A0A0319D52FD62FDB2F5A08031D3B
:101FB000DA2FDB2FE92F0030CB000030CA000030D1
:101FC000C9000030C8005A08031DE72FE82FE92F89
:101FD000D8015A1CEC2FED2FEF2FCA17F32F7F30AB
:101FE000D0005008CA055A08D0000310500CD10088
:101FF0005108CB00D81FFD2FFE2FFF2FCB17080055
:04400E00C430FF3F7C
:00000001FF
