:020000040000FA
:060000000A128A110E280D
:10000800FE00030EF2000408F3000A08F4000A12C6
:100018008A1153290A128A111128F901831203132C
:10002800B10183010A128A1119280A128A1145227C
:100038000A128A11F601F60AF501F50A0A128A115E
:10004800AC210A128A1134281F08C33930389F009E
:100058009F1446281F08C33928389F009F14462834
:10006800760883120313AE00AF012F08003A031974
:100078003E2846282E08013A03192828033A03196E
:100088002E284628790887007928850101308900BB
:100098007808AE00AF012E08A0002F08A1000A12B0
:1000A8008A1101220A128A11222885010230890048
:1000B8007708AE00AF012E08A0002F08A1000A1291
:1000C8008A1101220A128A11222885010430890026
:1000D8003008AE00AF012E08A0002F08A1000A12B8
:1000E8008A1101220A128A1122287508AE00AF016E
:1000F8002F08003A0319812822282E08013A0319EB
:100108004928033A03195928063A03196928222865
:100118000A128A110E2883120313A601A11F95281B
:1001280096289D28A009A109A00A0319A10AA601D9
:10013800A60AA31FA028A128AA28A209A309A20ADF
:100148000319A30A0130A4002408A606A701A801E0
:10015800200821040319B128B228E928A501A50A15
:10016800C02801300310A00DA10DFF3E031DB628C5
:100178000130A4002408A507A11FC328C428B52856
:1001880001300310A70DA80DFF3E031DC528210847
:100198002302031DD12820082202031CD428D528B5
:1001A800DC282008A2022108031CA303A3022714A9
:1001B80001300310A10CA00CFF3E031DDD28013007
:1001C800A502031DE828E928C42826080319ED28F4
:1001D800EE28F328A709A809A70A0319A80A2808D6
:1001E800A1002708A000080083120313A601A31F7B
:1001F800FE28FF280629A209A309A20A0319A30AAF
:10020800A601A60AA11F09290A290F29A009A109DF
:10021800A00A0319A10A2008210403191429152981
:100228004429A501A50A232901300310A00DA10D19
:10023800FF3E031D19290130A4002408A507A11FAA
:1002480026292729182921082302031D2D292008DA
:100258002202031C3029312937292008A20221084B
:10026800031CA303A30201300310A10CA00CFF3E42
:10027800031D38290130A502031D432944292729D4
:1002880026080319482949294E29A209A309A20ABF
:100298000319A30A2308A1002208A000080083125A
:1002A80003130C1F582959297B296A291E08F000B5
:1002B8007008F9000230F0007008F6007A291E086C
:1002C800F0007008B100F601F60A7A297608F00005
:1002D800F1017108003A031972297A297008013A64
:1002E80003195A29033A031963297A290C130B1D98
:1002F8007E297F29A3298D290230F0007008F50096
:10030800A0290430F0007008F500A029F501F50ACD
:10031800A0297508F000F1017108003A0319952920
:10032800A0297008013A03198029033A031985297D
:10033800063A03198A29A029B13081000B117408E3
:100348008A0073088400720E8300FE0E7E0E090078
:10035800643083120313A0000030A1003108A90003
:10036800AA012908A2002A08A3000A128A118F20CC
:100378000A128A11831203132008AB002B08F80015
:100388006430A0000030A1003108A900AA012908A2
:10039800A2002A08A3000A128A11F8200A128A1158
:1003A800831203132108AD002008AC000A30A00016
:1003B8000030A1002D08A3002C08A2000A128A11FF
:1003C8008F200A128A11831203132008A900290812
:1003D800F7000A30A0000030A1002D08A3002C0867
:1003E800A2000A128A11F8200A128A118312031332
:1003F8002008A9002908B00008001D2A3F30850000
:10040800442A06308500442A5B308500442A4F3050
:100418008500442A66308500442A6D308500442AC8
:100428007D308500442A7F308500442A6730850066
:10043800442A831203132108003A0319242A442A60
:100448002008003A0319022A013A0319052A033A37
:100458000319082A013A03190B2A073A03190E2A25
:10046800013A0319112A033A0319142A013A031904
:10047800172A0F3A0319172A013A03191A2A442A84
:100488000800831603130F140F138F120F1603306F
:1004980083120313860087018901850183160317D8
:1004A80088011430890083160313870103308600FE
:1004B8008901850181128111011181100110B1306A
:1004C8008312031381000B118B168B170B178316DE
:1004D80003130C179F133F30831203139F050C134C
:0404E8001F140800D5
:04400E00D430FF3F6C
:00000001FF
