:020000040000FA
:060000000A128A110E280D
:10000800FE00030EF2000408F3000A08F4000A12C6
:100018008A115F280A128A111128F601F701F801DE
:1000280083010A128A119628831603130F140F13DB
:100038008F120F16033083120313850087010330D4
:100048008316031788008901831603138701033079
:1000580085008B170B170C179F133F308312031360
:100068009F050C131F14FF308316031386009D3061
:1000780092003F308312031397051708F0390C38A4
:1000880097000F309D040F3095000F309B00CF3044
:1000980097051D129D128C101208FC390138920028
:1000A8008730920512158C1C5A285B28572883160E
:1000B800031387010800831203130C1F64286528A3
:1000C8008D287D281E08F0007008F700C3309F05B2
:1000D8000230F0007008F8000C138D281E08F0009C
:1000E8007008F6001F08C33904389F00F801F80AA1
:1000F80070287808F000F1017108003A0319852882
:100108008D287008013A03196628033A03197228E2
:100118008D2874088A0073088400720E8300FE0E0E
:100128007E0E09000A128A1118200A128A11F80193
:10013800F80A831203139F147708F500033003109D
:10014800F50CFF3E031DA3287508FD3E95007608B3
:10015800F50003300310F50CFF3E031DAE287508AB
:0C016800FD3E9B009D280A128A110E2803
:04400E00D430FF3F6C
:00000001FF
