:060000000A128A1100291A
:1002000003138316850186018701091008148814D9
:10021000081588150816031783168801890103132A
:100220008312850186018701890108182021881819
:100230002A210819322188193C21081A442115293C
:10024000081C202908182229850A051A850187011A
:1002500009100800881C2A2988182C298503870181
:1002600009100800081D322908193429860A061ABF
:100270008601870109100800881D3C2988193E293C
:1002800086038701091008000910081E4529060881
:100290000F39870005080F398707071A0914080066
:04400E00C130FF3F7F
:00000001FF
